{
  "contractName": "DAO",
  "abi": [
    {
      "inputs": [
        {
          "internalType": "address",
          "name": "_token",
          "type": "address"
        }
      ],
      "stateMutability": "nonpayable",
      "type": "constructor"
    },
    {
      "inputs": [
        {
          "internalType": "bytes32",
          "name": "",
          "type": "bytes32"
        }
      ],
      "name": "proposals",
      "outputs": [
        {
          "internalType": "address",
          "name": "author",
          "type": "address"
        },
        {
          "internalType": "bytes32",
          "name": "hash",
          "type": "bytes32"
        },
        {
          "internalType": "uint256",
          "name": "createdAt",
          "type": "uint256"
        },
        {
          "internalType": "uint256",
          "name": "votesYes",
          "type": "uint256"
        },
        {
          "internalType": "uint256",
          "name": "votesNo",
          "type": "uint256"
        },
        {
          "internalType": "enum DAO.Status",
          "name": "status",
          "type": "uint8"
        }
      ],
      "stateMutability": "view",
      "type": "function"
    },
    {
      "inputs": [
        {
          "internalType": "address",
          "name": "",
          "type": "address"
        }
      ],
      "name": "shares",
      "outputs": [
        {
          "internalType": "uint256",
          "name": "",
          "type": "uint256"
        }
      ],
      "stateMutability": "view",
      "type": "function"
    },
    {
      "inputs": [],
      "name": "token",
      "outputs": [
        {
          "internalType": "contract IERC20",
          "name": "",
          "type": "address"
        }
      ],
      "stateMutability": "view",
      "type": "function"
    },
    {
      "inputs": [],
      "name": "totalShares",
      "outputs": [
        {
          "internalType": "uint256",
          "name": "",
          "type": "uint256"
        }
      ],
      "stateMutability": "view",
      "type": "function"
    },
    {
      "inputs": [
        {
          "internalType": "address",
          "name": "",
          "type": "address"
        },
        {
          "internalType": "bytes32",
          "name": "",
          "type": "bytes32"
        }
      ],
      "name": "votes",
      "outputs": [
        {
          "internalType": "bool",
          "name": "",
          "type": "bool"
        }
      ],
      "stateMutability": "view",
      "type": "function"
    },
    {
      "inputs": [
        {
          "internalType": "uint256",
          "name": "amount",
          "type": "uint256"
        }
      ],
      "name": "deposit",
      "outputs": [],
      "stateMutability": "nonpayable",
      "type": "function"
    },
    {
      "inputs": [
        {
          "internalType": "uint256",
          "name": "amount",
          "type": "uint256"
        }
      ],
      "name": "withdraw",
      "outputs": [],
      "stateMutability": "nonpayable",
      "type": "function"
    },
    {
      "inputs": [
        {
          "internalType": "bytes32",
          "name": "proposalHash",
          "type": "bytes32"
        }
      ],
      "name": "createProposal",
      "outputs": [],
      "stateMutability": "nonpayable",
      "type": "function"
    },
    {
      "inputs": [
        {
          "internalType": "bytes32",
          "name": "proposalHash",
          "type": "bytes32"
        },
        {
          "internalType": "enum DAO.Side",
          "name": "side",
          "type": "uint8"
        }
      ],
      "name": "vote",
      "outputs": [],
      "stateMutability": "nonpayable",
      "type": "function"
    }
  ],
  "bytecode": "0x60806040523480156200001157600080fd5b50604051620014d2380380620014d2833981810160405281019062000037919062000096565b80600460006101000a81548173ffffffffffffffffffffffffffffffffffffffff021916908373ffffffffffffffffffffffffffffffffffffffff160217905550506200011b565b600081519050620000908162000101565b92915050565b600060208284031215620000af57620000ae620000fc565b5b6000620000bf848285016200007f565b91505092915050565b6000620000d582620000dc565b9050919050565b600073ffffffffffffffffffffffffffffffffffffffff82169050919050565b600080fd5b6200010c81620000c8565b81146200011857600080fd5b50565b6113a7806200012b6000396000f3fe608060405234801561001057600080fd5b50600436106100935760003560e01c80633a98ef39116100665780633a98ef3914610135578063b6b55f2514610153578063c9a28cb91461016f578063ce7c2ac21461018b578063fc0c546a146101bb57610093565b80631db5ade8146100985780632542bf06146100c85780632e1a7d4d146100e457806332ed5b1214610100575b600080fd5b6100b260048036038101906100ad9190610b6b565b6101d9565b6040516100bf9190610e5f565b60405180910390f35b6100e260048036038101906100dd9190610bd8565b610208565b005b6100fe60048036038101906100f99190610c45565b6103fb565b005b61011a60048036038101906101159190610bd8565b61059f565b60405161012c96959493929190610dd5565b60405180910390f35b61013d610608565b60405161014a9190610f55565b60405180910390f35b61016d60048036038101906101689190610c45565b61060e565b005b61018960048036038101906101849190610c05565b610732565b005b6101a560048036038101906101a09190610b3e565b610a97565b6040516101b29190610f55565b60405180910390f35b6101c3610aaf565b6040516101d09190610e7a565b60405180910390f35b60016020528160005260406000206020528060005260406000206000915091509054906101000a900460ff1681565b678ac7230489e80000600260003373ffffffffffffffffffffffffffffffffffffffff1673ffffffffffffffffffffffffffffffffffffffff168152602001908152602001600020541015610292576040517f08c379a000000000000000000000000000000000000000000000000000000000815260040161028990610eb5565b60405180910390fd5b6000801b60008083815260200190815260200160002060010154146102ec576040517f08c379a00000000000000000000000000000000000000000000000000000000081526004016102e390610e95565b60405180910390fd5b6040518060c001604052803373ffffffffffffffffffffffffffffffffffffffff168152602001828152602001428152602001600081526020016000815260200160006002811115610341576103406111a1565b5b81525060008083815260200190815260200160002060008201518160000160006101000a81548173ffffffffffffffffffffffffffffffffffffffff021916908373ffffffffffffffffffffffffffffffffffffffff1602179055506020820151816001015560408201518160020155606082015181600301556080820151816004015560a08201518160050160006101000a81548160ff021916908360028111156103f0576103ef6111a1565b5b021790555090505050565b80600260003373ffffffffffffffffffffffffffffffffffffffff1673ffffffffffffffffffffffffffffffffffffffff16815260200190815260200160002054101561047d576040517f08c379a000000000000000000000000000000000000000000000000000000000815260040161047490610ed5565b60405180910390fd5b80600260003373ffffffffffffffffffffffffffffffffffffffff1673ffffffffffffffffffffffffffffffffffffffff16815260200190815260200160002060008282546104cc9190611062565b9250508190555080600360008282546104e59190611062565b92505081905550600460009054906101000a900473ffffffffffffffffffffffffffffffffffffffff1673ffffffffffffffffffffffffffffffffffffffff1663a9059cbb33836040518363ffffffff1660e01b8152600401610549929190610e36565b602060405180830381600087803b15801561056357600080fd5b505af1158015610577573d6000803e3d6000fd5b505050506040513d601f19601f8201168201806040525081019061059b9190610bab565b5050565b60006020528060005260406000206000915090508060000160009054906101000a900473ffffffffffffffffffffffffffffffffffffffff16908060010154908060020154908060030154908060040154908060050160009054906101000a900460ff16905086565b60035481565b80600260003373ffffffffffffffffffffffffffffffffffffffff1673ffffffffffffffffffffffffffffffffffffffff168152602001908152602001600020600082825461065d9190610f81565b9250508190555080600360008282546106769190610f81565b92505081905550600460009054906101000a900473ffffffffffffffffffffffffffffffffffffffff1673ffffffffffffffffffffffffffffffffffffffff166323b872dd3330846040518463ffffffff1660e01b81526004016106dc93929190610d9e565b602060405180830381600087803b1580156106f657600080fd5b505af115801561070a573d6000803e3d6000fd5b505050506040513d601f19601f8201168201806040525081019061072e9190610bab565b5050565b6000806000848152602001908152602001600020905060001515600160003373ffffffffffffffffffffffffffffffffffffffff1673ffffffffffffffffffffffffffffffffffffffff168152602001908152602001600020600085815260200190815260200160002060009054906101000a900460ff161515146107ec576040517f08c379a00000000000000000000000000000000000000000000000000000000081526004016107e390610ef5565b60405180910390fd5b6000801b600080858152602001908152602001600020600101541415610847576040517f08c379a000000000000000000000000000000000000000000000000000000000815260040161083e90610f15565b60405180910390fd5b6104b081600201546108599190610f81565b42111561089b576040517f08c379a000000000000000000000000000000000000000000000000000000000815260040161089290610f35565b60405180910390fd5b60018060003373ffffffffffffffffffffffffffffffffffffffff1673ffffffffffffffffffffffffffffffffffffffff168152602001908152602001600020600085815260200190815260200160002060006101000a81548160ff02191690831515021790555060006001811115610917576109166111a1565b5b82600181111561092a576109296111a1565b5b14156109e357600260003373ffffffffffffffffffffffffffffffffffffffff1673ffffffffffffffffffffffffffffffffffffffff168152602001908152602001600020548160030160008282546109839190610f81565b925050819055506032600354606483600301546109a09190611008565b6109aa9190610fd7565b11156109de5760018160050160006101000a81548160ff021916908360028111156109d8576109d76111a1565b5b02179055505b610a92565b600260003373ffffffffffffffffffffffffffffffffffffffff1673ffffffffffffffffffffffffffffffffffffffff16815260200190815260200160002054816004016000828254610a369190610f81565b92505081905550603260035460648360040154610a539190611008565b610a5d9190610fd7565b1115610a915760028160050160006101000a81548160ff02191690836002811115610a8b57610a8a6111a1565b5b02179055505b5b505050565b60026020528060005260406000206000915090505481565b600460009054906101000a900473ffffffffffffffffffffffffffffffffffffffff1681565b600081359050610ae481611305565b92915050565b600081519050610af98161131c565b92915050565b600081359050610b0e81611333565b92915050565b600081359050610b238161134a565b92915050565b600081359050610b388161135a565b92915050565b600060208284031215610b5457610b536111d0565b5b6000610b6284828501610ad5565b91505092915050565b60008060408385031215610b8257610b816111d0565b5b6000610b9085828601610ad5565b9250506020610ba185828601610aff565b9150509250929050565b600060208284031215610bc157610bc06111d0565b5b6000610bcf84828501610aea565b91505092915050565b600060208284031215610bee57610bed6111d0565b5b6000610bfc84828501610aff565b91505092915050565b60008060408385031215610c1c57610c1b6111d0565b5b6000610c2a85828601610aff565b9250506020610c3b85828601610b14565b9150509250929050565b600060208284031215610c5b57610c5a6111d0565b5b6000610c6984828501610b29565b91505092915050565b610c7b81611096565b82525050565b610c8a816110a8565b82525050565b610c99816110b4565b82525050565b610ca8816110fb565b82525050565b610cb78161110d565b82525050565b6000610cca601b83610f70565b9150610cd5826111d5565b602082019050919050565b6000610ced602483610f70565b9150610cf8826111fe565b604082019050919050565b6000610d10601183610f70565b9150610d1b8261124d565b602082019050919050565b6000610d33600d83610f70565b9150610d3e82611276565b602082019050919050565b6000610d56601683610f70565b9150610d618261129f565b602082019050919050565b6000610d79601283610f70565b9150610d84826112c8565b602082019050919050565b610d98816110f1565b82525050565b6000606082019050610db36000830186610c72565b610dc06020830185610c72565b610dcd6040830184610d8f565b949350505050565b600060c082019050610dea6000830189610c72565b610df76020830188610c90565b610e046040830187610d8f565b610e116060830186610d8f565b610e1e6080830185610d8f565b610e2b60a0830184610cae565b979650505050505050565b6000604082019050610e4b6000830185610c72565b610e586020830184610d8f565b9392505050565b6000602082019050610e746000830184610c81565b92915050565b6000602082019050610e8f6000830184610c9f565b92915050565b60006020820190508181036000830152610eae81610cbd565b9050919050565b60006020820190508181036000830152610ece81610ce0565b9050919050565b60006020820190508181036000830152610eee81610d03565b9050919050565b60006020820190508181036000830152610f0e81610d26565b9050919050565b60006020820190508181036000830152610f2e81610d49565b9050919050565b60006020820190508181036000830152610f4e81610d6c565b9050919050565b6000602082019050610f6a6000830184610d8f565b92915050565b600082825260208201905092915050565b6000610f8c826110f1565b9150610f97836110f1565b9250827fffffffffffffffffffffffffffffffffffffffffffffffffffffffffffffffff03821115610fcc57610fcb611143565b5b828201905092915050565b6000610fe2826110f1565b9150610fed836110f1565b925082610ffd57610ffc611172565b5b828204905092915050565b6000611013826110f1565b915061101e836110f1565b9250817fffffffffffffffffffffffffffffffffffffffffffffffffffffffffffffffff048311821515161561105757611056611143565b5b828202905092915050565b600061106d826110f1565b9150611078836110f1565b92508282101561108b5761108a611143565b5b828203905092915050565b60006110a1826110d1565b9050919050565b60008115159050919050565b6000819050919050565b60008190506110cc826112f1565b919050565b600073ffffffffffffffffffffffffffffffffffffffff82169050919050565b6000819050919050565b60006111068261111f565b9050919050565b6000611118826110be565b9050919050565b600061112a82611131565b9050919050565b600061113c826110d1565b9050919050565b7f4e487b7100000000000000000000000000000000000000000000000000000000600052601160045260246000fd5b7f4e487b7100000000000000000000000000000000000000000000000000000000600052601260045260246000fd5b7f4e487b7100000000000000000000000000000000000000000000000000000000600052602160045260246000fd5b600080fd5b7f746869732070726f706f73616c20616c72656164792065786973740000000000600082015250565b7f6e6f7420656e6f7567682073686172657320746f206372656174652070726f7060008201527f6f73616c00000000000000000000000000000000000000000000000000000000602082015250565b7f6e6f7420656e6f75676820736861726573000000000000000000000000000000600082015250565b7f616c726561647920766f74656400000000000000000000000000000000000000600082015250565b7f70726f706f73616c20616c726561647920657869737400000000000000000000600082015250565b7f766f74696e6720706572696f64206f7665720000000000000000000000000000600082015250565b60038110611302576113016111a1565b5b50565b61130e81611096565b811461131957600080fd5b50565b611325816110a8565b811461133057600080fd5b50565b61133c816110b4565b811461134757600080fd5b50565b6002811061135757600080fd5b50565b611363816110f1565b811461136e57600080fd5b5056fea26469706673582212202393446764bc42173b25c5459d8b44b77da838357b8393fce29e323ddedc820e64736f6c63430008070033",
  "immutableReferences": {},
  "source": "// SPDX-License-Identifier: MIT\npragma solidity ^0.8.7;\n\nimport \"@openzeppelin/contracts/token/ERC20/IERC20.sol\";\n\ncontract DAO {\n    enum Side {\n        Yes,\n        No\n    }\n\n    enum Status {\n        Undecided,\n        Approved,\n        Rejected\n    }\n\n    struct Proposal {\n        address author;\n        bytes32 hash;\n        uint256 createdAt;\n        uint256 votesYes;\n        uint256 votesNo;\n        Status status;\n    }\n\n    mapping(bytes32 => Proposal) public proposals;\n    mapping(address => mapping(bytes32 => bool)) public votes;\n    mapping(address => uint256) public shares;\n    uint256 public totalShares;\n    IERC20 public token;\n    uint256 constant CREATE_PROPOSAL_MIN_SHARE = 10 * 10**18;\n    uint256 constant VOTING_PERIOD = 20 minutes;\n\n    constructor(address _token) {\n        token = IERC20(_token);\n    }\n\n    function deposit(uint256 amount) external {\n        shares[msg.sender] += amount;\n        totalShares += amount;\n        token.transferFrom(msg.sender, address(this), amount);\n    }\n\n    function withdraw(uint256 amount) external {\n        require(shares[msg.sender] >= amount, \"not enough shares\");\n        shares[msg.sender] -= amount;\n        totalShares -= amount;\n        token.transfer(msg.sender, amount);\n    }\n\n    function createProposal(bytes32 proposalHash) external {\n        require(\n            shares[msg.sender] >= CREATE_PROPOSAL_MIN_SHARE,\n            \"not enough shares to create proposal\"\n        );\n        require(\n            proposals[proposalHash].hash == bytes32(0),\n            \"this proposal already exist\"\n        );\n        proposals[proposalHash] = Proposal(\n            msg.sender,\n            proposalHash,\n            block.timestamp,\n            0,\n            0,\n            Status.Undecided\n        );\n    }\n\n    function vote(bytes32 proposalHash, Side side) external {\n        Proposal storage proposal = proposals[proposalHash];\n        require(votes[msg.sender][proposalHash] == false, \"already voted\");\n        require(\n            proposals[proposalHash].hash != bytes32(0),\n            \"proposal already exist\"\n        );\n        require(\n            block.timestamp <= proposal.createdAt + VOTING_PERIOD,\n            \"voting period over\"\n        );\n        votes[msg.sender][proposalHash] = true;\n        if (side == Side.Yes) {\n            proposal.votesYes += shares[msg.sender];\n            if ((proposal.votesYes * 100) / totalShares > 50) {\n                proposal.status = Status.Approved;\n            }\n        } else {\n            proposal.votesNo += shares[msg.sender];\n            if ((proposal.votesNo * 100) / totalShares > 50) {\n                proposal.status = Status.Rejected;\n            }\n        }\n    }\n}\n",
  "sourcePath": "/Volumes/APPLE HDD/reactprojects/hardhat-3/dao-truffle/contracts/DAO.sol",
  "compiler": {
    "name": "solc",
    "version": "0.8.7+commit.e28d00a7.Emscripten.clang"
  },
  "schemaVersion": "3.4.3",
  "updatedAt": "2021-12-01T14:21:15.396Z",
  "devdoc": {
    "kind": "dev",
    "methods": {},
    "version": 1
  },
  "userdoc": {
    "kind": "user",
    "methods": {},
    "version": 1
  }
}