{
  "contractName": "DAO",
  "abi": [
    {
      "inputs": [
        {
          "internalType": "address",
          "name": "_token",
          "type": "address"
        }
      ],
      "stateMutability": "nonpayable",
      "type": "constructor"
    },
    {
      "inputs": [
        {
          "internalType": "bytes32",
          "name": "",
          "type": "bytes32"
        }
      ],
      "name": "proposals",
      "outputs": [
        {
          "internalType": "address",
          "name": "author",
          "type": "address"
        },
        {
          "internalType": "bytes32",
          "name": "hash",
          "type": "bytes32"
        },
        {
          "internalType": "uint256",
          "name": "createdAt",
          "type": "uint256"
        },
        {
          "internalType": "uint256",
          "name": "votesYes",
          "type": "uint256"
        },
        {
          "internalType": "uint256",
          "name": "votesNo",
          "type": "uint256"
        },
        {
          "internalType": "enum DAO.Status",
          "name": "status",
          "type": "uint8"
        }
      ],
      "stateMutability": "view",
      "type": "function"
    },
    {
      "inputs": [
        {
          "internalType": "address",
          "name": "",
          "type": "address"
        }
      ],
      "name": "shares",
      "outputs": [
        {
          "internalType": "uint256",
          "name": "",
          "type": "uint256"
        }
      ],
      "stateMutability": "view",
      "type": "function"
    },
    {
      "inputs": [],
      "name": "token",
      "outputs": [
        {
          "internalType": "contract IERC20",
          "name": "",
          "type": "address"
        }
      ],
      "stateMutability": "view",
      "type": "function"
    },
    {
      "inputs": [],
      "name": "totalShares",
      "outputs": [
        {
          "internalType": "uint256",
          "name": "",
          "type": "uint256"
        }
      ],
      "stateMutability": "view",
      "type": "function"
    },
    {
      "inputs": [
        {
          "internalType": "address",
          "name": "",
          "type": "address"
        },
        {
          "internalType": "bytes32",
          "name": "",
          "type": "bytes32"
        }
      ],
      "name": "votes",
      "outputs": [
        {
          "internalType": "bool",
          "name": "",
          "type": "bool"
        }
      ],
      "stateMutability": "view",
      "type": "function"
    },
    {
      "inputs": [
        {
          "internalType": "uint256",
          "name": "amount",
          "type": "uint256"
        }
      ],
      "name": "deposit",
      "outputs": [],
      "stateMutability": "nonpayable",
      "type": "function"
    },
    {
      "inputs": [
        {
          "internalType": "uint256",
          "name": "amount",
          "type": "uint256"
        }
      ],
      "name": "withdraw",
      "outputs": [],
      "stateMutability": "nonpayable",
      "type": "function"
    },
    {
      "inputs": [
        {
          "internalType": "bytes32",
          "name": "proposalHash",
          "type": "bytes32"
        }
      ],
      "name": "createProposal",
      "outputs": [],
      "stateMutability": "nonpayable",
      "type": "function"
    },
    {
      "inputs": [
        {
          "internalType": "bytes32",
          "name": "proposalHash",
          "type": "bytes32"
        },
        {
          "internalType": "enum DAO.Side",
          "name": "side",
          "type": "uint8"
        }
      ],
      "name": "vote",
      "outputs": [],
      "stateMutability": "nonpayable",
      "type": "function"
    }
  ],
  "bytecode": "0x60806040523480156200001157600080fd5b50604051620014d4380380620014d4833981810160405281019062000037919062000096565b80600460006101000a81548173ffffffffffffffffffffffffffffffffffffffff021916908373ffffffffffffffffffffffffffffffffffffffff160217905550506200011b565b600081519050620000908162000101565b92915050565b600060208284031215620000af57620000ae620000fc565b5b6000620000bf848285016200007f565b91505092915050565b6000620000d582620000dc565b9050919050565b600073ffffffffffffffffffffffffffffffffffffffff82169050919050565b600080fd5b6200010c81620000c8565b81146200011857600080fd5b50565b6113a9806200012b6000396000f3fe608060405234801561001057600080fd5b50600436106100935760003560e01c80633a98ef39116100665780633a98ef3914610135578063b6b55f2514610153578063c9a28cb91461016f578063ce7c2ac21461018b578063fc0c546a146101bb57610093565b80631db5ade8146100985780632542bf06146100c85780632e1a7d4d146100e457806332ed5b1214610100575b600080fd5b6100b260048036038101906100ad9190610b6d565b6101d9565b6040516100bf9190610e61565b60405180910390f35b6100e260048036038101906100dd9190610bda565b610208565b005b6100fe60048036038101906100f99190610c47565b6103fc565b005b61011a60048036038101906101159190610bda565b6105a0565b60405161012c96959493929190610dd7565b60405180910390f35b61013d610609565b60405161014a9190610f57565b60405180910390f35b61016d60048036038101906101689190610c47565b61060f565b005b61018960048036038101906101849190610c07565b610733565b005b6101a560048036038101906101a09190610b40565b610a99565b6040516101b29190610f57565b60405180910390f35b6101c3610ab1565b6040516101d09190610e7c565b60405180910390f35b60016020528160005260406000206020528060005260406000206000915091509054906101000a900460ff1681565b683635c9adc5dea00000600260003373ffffffffffffffffffffffffffffffffffffffff1673ffffffffffffffffffffffffffffffffffffffff168152602001908152602001600020541015610293576040517f08c379a000000000000000000000000000000000000000000000000000000000815260040161028a90610eb7565b60405180910390fd5b6000801b60008083815260200190815260200160002060010154146102ed576040517f08c379a00000000000000000000000000000000000000000000000000000000081526004016102e490610e97565b60405180910390fd5b6040518060c001604052803373ffffffffffffffffffffffffffffffffffffffff168152602001828152602001428152602001600081526020016000815260200160006002811115610342576103416111a3565b5b81525060008083815260200190815260200160002060008201518160000160006101000a81548173ffffffffffffffffffffffffffffffffffffffff021916908373ffffffffffffffffffffffffffffffffffffffff1602179055506020820151816001015560408201518160020155606082015181600301556080820151816004015560a08201518160050160006101000a81548160ff021916908360028111156103f1576103f06111a3565b5b021790555090505050565b80600260003373ffffffffffffffffffffffffffffffffffffffff1673ffffffffffffffffffffffffffffffffffffffff16815260200190815260200160002054101561047e576040517f08c379a000000000000000000000000000000000000000000000000000000000815260040161047590610ed7565b60405180910390fd5b80600260003373ffffffffffffffffffffffffffffffffffffffff1673ffffffffffffffffffffffffffffffffffffffff16815260200190815260200160002060008282546104cd9190611064565b9250508190555080600360008282546104e69190611064565b92505081905550600460009054906101000a900473ffffffffffffffffffffffffffffffffffffffff1673ffffffffffffffffffffffffffffffffffffffff1663a9059cbb33836040518363ffffffff1660e01b815260040161054a929190610e38565b602060405180830381600087803b15801561056457600080fd5b505af1158015610578573d6000803e3d6000fd5b505050506040513d601f19601f8201168201806040525081019061059c9190610bad565b5050565b60006020528060005260406000206000915090508060000160009054906101000a900473ffffffffffffffffffffffffffffffffffffffff16908060010154908060020154908060030154908060040154908060050160009054906101000a900460ff16905086565b60035481565b80600260003373ffffffffffffffffffffffffffffffffffffffff1673ffffffffffffffffffffffffffffffffffffffff168152602001908152602001600020600082825461065e9190610f83565b9250508190555080600360008282546106779190610f83565b92505081905550600460009054906101000a900473ffffffffffffffffffffffffffffffffffffffff1673ffffffffffffffffffffffffffffffffffffffff166323b872dd3330846040518463ffffffff1660e01b81526004016106dd93929190610da0565b602060405180830381600087803b1580156106f757600080fd5b505af115801561070b573d6000803e3d6000fd5b505050506040513d601f19601f8201168201806040525081019061072f9190610bad565b5050565b6000806000848152602001908152602001600020905060001515600160003373ffffffffffffffffffffffffffffffffffffffff1673ffffffffffffffffffffffffffffffffffffffff168152602001908152602001600020600085815260200190815260200160002060009054906101000a900460ff161515146107ed576040517f08c379a00000000000000000000000000000000000000000000000000000000081526004016107e490610ef7565b60405180910390fd5b6000801b600080858152602001908152602001600020600101541415610848576040517f08c379a000000000000000000000000000000000000000000000000000000000815260040161083f90610f17565b60405180910390fd5b62093a80816002015461085b9190610f83565b42111561089d576040517f08c379a000000000000000000000000000000000000000000000000000000000815260040161089490610f37565b60405180910390fd5b60018060003373ffffffffffffffffffffffffffffffffffffffff1673ffffffffffffffffffffffffffffffffffffffff168152602001908152602001600020600085815260200190815260200160002060006101000a81548160ff02191690831515021790555060006001811115610919576109186111a3565b5b82600181111561092c5761092b6111a3565b5b14156109e557600260003373ffffffffffffffffffffffffffffffffffffffff1673ffffffffffffffffffffffffffffffffffffffff168152602001908152602001600020548160030160008282546109859190610f83565b925050819055506032600354606483600301546109a2919061100a565b6109ac9190610fd9565b11156109e05760018160050160006101000a81548160ff021916908360028111156109da576109d96111a3565b5b02179055505b610a94565b600260003373ffffffffffffffffffffffffffffffffffffffff1673ffffffffffffffffffffffffffffffffffffffff16815260200190815260200160002054816004016000828254610a389190610f83565b92505081905550603260035460648360040154610a55919061100a565b610a5f9190610fd9565b1115610a935760028160050160006101000a81548160ff02191690836002811115610a8d57610a8c6111a3565b5b02179055505b5b505050565b60026020528060005260406000206000915090505481565b600460009054906101000a900473ffffffffffffffffffffffffffffffffffffffff1681565b600081359050610ae681611307565b92915050565b600081519050610afb8161131e565b92915050565b600081359050610b1081611335565b92915050565b600081359050610b258161134c565b92915050565b600081359050610b3a8161135c565b92915050565b600060208284031215610b5657610b556111d2565b5b6000610b6484828501610ad7565b91505092915050565b60008060408385031215610b8457610b836111d2565b5b6000610b9285828601610ad7565b9250506020610ba385828601610b01565b9150509250929050565b600060208284031215610bc357610bc26111d2565b5b6000610bd184828501610aec565b91505092915050565b600060208284031215610bf057610bef6111d2565b5b6000610bfe84828501610b01565b91505092915050565b60008060408385031215610c1e57610c1d6111d2565b5b6000610c2c85828601610b01565b9250506020610c3d85828601610b16565b9150509250929050565b600060208284031215610c5d57610c5c6111d2565b5b6000610c6b84828501610b2b565b91505092915050565b610c7d81611098565b82525050565b610c8c816110aa565b82525050565b610c9b816110b6565b82525050565b610caa816110fd565b82525050565b610cb98161110f565b82525050565b6000610ccc601b83610f72565b9150610cd7826111d7565b602082019050919050565b6000610cef602483610f72565b9150610cfa82611200565b604082019050919050565b6000610d12601183610f72565b9150610d1d8261124f565b602082019050919050565b6000610d35600d83610f72565b9150610d4082611278565b602082019050919050565b6000610d58601683610f72565b9150610d63826112a1565b602082019050919050565b6000610d7b601283610f72565b9150610d86826112ca565b602082019050919050565b610d9a816110f3565b82525050565b6000606082019050610db56000830186610c74565b610dc26020830185610c74565b610dcf6040830184610d91565b949350505050565b600060c082019050610dec6000830189610c74565b610df96020830188610c92565b610e066040830187610d91565b610e136060830186610d91565b610e206080830185610d91565b610e2d60a0830184610cb0565b979650505050505050565b6000604082019050610e4d6000830185610c74565b610e5a6020830184610d91565b9392505050565b6000602082019050610e766000830184610c83565b92915050565b6000602082019050610e916000830184610ca1565b92915050565b60006020820190508181036000830152610eb081610cbf565b9050919050565b60006020820190508181036000830152610ed081610ce2565b9050919050565b60006020820190508181036000830152610ef081610d05565b9050919050565b60006020820190508181036000830152610f1081610d28565b9050919050565b60006020820190508181036000830152610f3081610d4b565b9050919050565b60006020820190508181036000830152610f5081610d6e565b9050919050565b6000602082019050610f6c6000830184610d91565b92915050565b600082825260208201905092915050565b6000610f8e826110f3565b9150610f99836110f3565b9250827fffffffffffffffffffffffffffffffffffffffffffffffffffffffffffffffff03821115610fce57610fcd611145565b5b828201905092915050565b6000610fe4826110f3565b9150610fef836110f3565b925082610fff57610ffe611174565b5b828204905092915050565b6000611015826110f3565b9150611020836110f3565b9250817fffffffffffffffffffffffffffffffffffffffffffffffffffffffffffffffff048311821515161561105957611058611145565b5b828202905092915050565b600061106f826110f3565b915061107a836110f3565b92508282101561108d5761108c611145565b5b828203905092915050565b60006110a3826110d3565b9050919050565b60008115159050919050565b6000819050919050565b60008190506110ce826112f3565b919050565b600073ffffffffffffffffffffffffffffffffffffffff82169050919050565b6000819050919050565b600061110882611121565b9050919050565b600061111a826110c0565b9050919050565b600061112c82611133565b9050919050565b600061113e826110d3565b9050919050565b7f4e487b7100000000000000000000000000000000000000000000000000000000600052601160045260246000fd5b7f4e487b7100000000000000000000000000000000000000000000000000000000600052601260045260246000fd5b7f4e487b7100000000000000000000000000000000000000000000000000000000600052602160045260246000fd5b600080fd5b7f746869732070726f706f73616c20616c72656164792065786973740000000000600082015250565b7f6e6f7420656e6f7567682073686172657320746f206372656174652070726f7060008201527f6f73616c00000000000000000000000000000000000000000000000000000000602082015250565b7f6e6f7420656e6f75676820736861726573000000000000000000000000000000600082015250565b7f616c726561647920766f74656400000000000000000000000000000000000000600082015250565b7f70726f706f73616c20616c726561647920657869737400000000000000000000600082015250565b7f766f74696e6720706572696f64206f7665720000000000000000000000000000600082015250565b60038110611304576113036111a3565b5b50565b61131081611098565b811461131b57600080fd5b50565b611327816110aa565b811461133257600080fd5b50565b61133e816110b6565b811461134957600080fd5b50565b6002811061135957600080fd5b50565b611365816110f3565b811461137057600080fd5b5056fea2646970667358221220692e25c77c3bf101d73e8c0f18d97c119b5a7c55d28a436e2885e32e099f95b564736f6c63430008070033",
  "immutableReferences": {},
  "source": "// SPDX-License-Identifier: MIT\npragma solidity ^0.8.7;\n\nimport \"@openzeppelin/contracts/token/ERC20/IERC20.sol\";\n\ncontract DAO {\n    enum Side {\n        Yes,\n        No\n    }\n\n    enum Status {\n        Undecided,\n        Approved,\n        Rejected\n    }\n\n    struct Proposal {\n        address author;\n        bytes32 hash;\n        uint256 createdAt;\n        uint256 votesYes;\n        uint256 votesNo;\n        Status status;\n    }\n\n    mapping(bytes32 => Proposal) public proposals;\n    mapping(address => mapping(bytes32 => bool)) public votes;\n    mapping(address => uint256) public shares;\n    uint256 public totalShares;\n    IERC20 public token;\n    uint256 constant CREATE_PROPOSAL_MIN_SHARE = 1000 * 10**18;\n    uint256 constant VOTING_PERIOD = 7 days;\n\n    constructor(address _token) {\n        token = IERC20(_token);\n    }\n\n    function deposit(uint256 amount) external {\n        shares[msg.sender] += amount;\n        totalShares += amount;\n        token.transferFrom(msg.sender, address(this), amount);\n    }\n\n    function withdraw(uint256 amount) external {\n        require(shares[msg.sender] >= amount, \"not enough shares\");\n        shares[msg.sender] -= amount;\n        totalShares -= amount;\n        token.transfer(msg.sender, amount);\n    }\n\n    function createProposal(bytes32 proposalHash) external {\n        require(\n            shares[msg.sender] >= CREATE_PROPOSAL_MIN_SHARE,\n            \"not enough shares to create proposal\"\n        );\n        require(\n            proposals[proposalHash].hash == bytes32(0),\n            \"this proposal already exist\"\n        );\n        proposals[proposalHash] = Proposal(\n            msg.sender,\n            proposalHash,\n            block.timestamp,\n            0,\n            0,\n            Status.Undecided\n        );\n    }\n\n    function vote(bytes32 proposalHash, Side side) external {\n        Proposal storage proposal = proposals[proposalHash];\n        require(votes[msg.sender][proposalHash] == false, \"already voted\");\n        require(\n            proposals[proposalHash].hash != bytes32(0),\n            \"proposal already exist\"\n        );\n        require(\n            block.timestamp <= proposal.createdAt + VOTING_PERIOD,\n            \"voting period over\"\n        );\n        votes[msg.sender][proposalHash] = true;\n        if (side == Side.Yes) {\n            proposal.votesYes += shares[msg.sender];\n            if ((proposal.votesYes * 100) / totalShares > 50) {\n                proposal.status = Status.Approved;\n            }\n        } else {\n            proposal.votesNo += shares[msg.sender];\n            if ((proposal.votesNo * 100) / totalShares > 50) {\n                proposal.status = Status.Rejected;\n            }\n        }\n    }\n}\n",
  "sourcePath": "/Volumes/APPLE HDD/reactprojects/hardhat-3/dao-truffle/contracts/DAO.sol",
  "compiler": {
    "name": "solc",
    "version": "0.8.7+commit.e28d00a7.Emscripten.clang"
  },
  "schemaVersion": "3.4.3",
  "updatedAt": "2021-12-01T14:02:32.212Z",
  "devdoc": {
    "kind": "dev",
    "methods": {},
    "version": 1
  },
  "userdoc": {
    "kind": "user",
    "methods": {},
    "version": 1
  }
}